:020000040800F2
:100000003846012055020008D12D00083D26000881
:1000100031290008AD19000857440008000000000D
:100020000000000000000000000000009D0100082A
:100030008D1B000800000000F1010008953B00083E
:100040006F0200086F0200086F020008FD38000808
:100050006F0200086F0200086F0200086F020008BC
:100060006F0200086F0200086F0200086F020008AC
:100070006F0200086F0200086F0200086F0200089C
:100080006F0200086F0200086F0200086F0200088C
:100090006F0200086F0200086F0200086F0200087C
:1000A0006F0200086F0200086F0200086F0200086C
:1000B0006F0200086F0200086F0200086F0200085C
:1000C0006F0200086F0200086F0200086F0200084C
:1000D0006F020008313E0008C140000811420008CC
:1000E0006F0200086F0200086F0200086F0200082C
:1000F0006F0200086F0200086F0200086F0200081C
:100100006F0200086F0200086F0200086F0200080B
:100110006F0200086F0200086F0200086F020008FB
:100120006F0200086F0200086F0200086F020008EB
:100130006F0200086F0200086F0200086F020008DB
:100140006F0200086F0200086F0200086F020008CB
:100150006F0200086F0200086F0200086F020008BB
:100160006F0200086F0200086F0200086F020008AB
:100170006F0200086F0200086F0200086F0200089B
:100180006F0200086F020008DFF80CD001F09AF847
:100190000048004741670008384601202A4B19688B
:1001A0000868B0E8F04F80F30988BFF36F8F4FF015
:1001B000000080F3118870470000000006480068C6
:1001C000006880F3088862B661B6BFF34F8FBFF353
:1001D0006F8F00DF00BF00BF08ED00E0DFF80C000C
:1001E000016841F470010160704700BF88ED00E0D4
:1001F000EFF30980BFF36F8F134B1A681EF0100FD7
:1002000008BF20ED108A20E9F04F106008B44FF0CD
:10021000500080F31188BFF34F8FBFF36F8F09F049
:1002200011F84FF0000080F3118808BC19680868C5
:10023000B0E8F04F1EF0100F08BFB0EC108A80F34A
:100240000988BFF36F8F7047D0040020EFF305805B
:10025000704700000648804706480047FEE7FEE773
:10026000FEE7FEE7FEE7FEE7FEE7FEE7FEE7FEE766
:10027000C93B000889010008A0F14101192900D8F3
:100280002030704700487047A0A4000810B540EA2D
:1002900001040346A40703D009E010C9121F10C3CC
:1002A000042AFAD203E011F8014B03F8014B521E65
:1002B000F9D210BDD2B201E000F8012B491EFBD2E9
:1002C00070470022F6E710B513460A460446194661
:1002D000FFF7F0FF204610BD30B505462A460B4615
:1002E00012F8010B13F8014B08B1A042F8D01CB171
:1002F000002802D06D1CF1E7284630BD421C10F8E2
:10030000011B0029FBD1801A704710B5002200E0C4
:10031000521C835C8C5CA34201D1002BF8D1D8B273
:10032000E1B2401A10BD034611F8012B00F8012B71
:10033000002AF9D11846704730B50546002003461B
:1003400000E05B1C934205D2EC5CC85C201A01D132
:10035000002CF6D130BD00000FB400B58DB010A94F
:1003600009900B9000914FF0FF300A9000200C9004
:1003700005480690054807906A4609A80F9900F0BD
:1003800029FE0DB05DF814FBF10F00080F100008F6
:1003900070B5064604F068F9046805460A22002193
:1003A000304600F093FE2C6070BD2DE9FE4F804674
:1003B00081EA0300C00F0C46009021F0004123F0B9
:1003C0000045B8EB0200A94105D2404621469046BF
:1003D0001C460B46024623F00040104347D0270D31
:1003E000C7F30A00C3F30A510290401A0190402853
:1003F0006BDAC3F3130040F4801B0098924620B1DF
:100400000023D2EB030A63EB0B0B01985946C0F1B2
:100410004002504600F035FA06460D465046594611
:10042000019A00F04DFA10EB08006141002487EAC0
:10043000115284EAE7731A4340D0009A62B3019ADA
:10044000012A4FEA075215DC001B61EB02014FF055
:10045000004202EA0752CDE90042001C41F580113A
:1004600032462B4600F0B0FE03B0BDE8F08F4046A8
:100470002146F9E7001B61EB0201001C41F58013E6
:1004800000185B412018A2F5001747EB030140EA72
:10049000D570B6196D4111E06D084FEA360645EA90
:1004A000C0754FEA0752001B61EB0201001C41F5C9
:1004B000801149084FEA30000019514132462B465D
:1004C00003B0BDE8F04F00F070BE0098012240007C
:1004D0000023D0EB020263EBE073009821464FEA61
:1004E000E074B8EB000061EB0401E9E783F000433E
:1004F0005BE781F0004158E72DE9FE4F81EA0304F4
:1005000004F0004421F0004100944FF0000B23F070
:10051000004350EA01045ED052EA03045BD0C3F307
:100520000A54C1F30A552C44A4F2F3340194A0FBFD
:100530000254C1F3130141F48011C3F3130343F4D4
:10054000801301FB024400FB034E840A970A44EA2D
:10055000815447EA8357A4FB076802958D0A05FB7F
:1005600007854FEA932C04FB0C542705029D4FEAA4
:10057000065847EA1637B5EB08056EEB070C870EF1
:10058000920E47EA811742EA8312A7FB0201B6EBFB
:100590000B0164EB00042B0D43EA0C335E1844EBB3
:1005A0001C50DA465146E7FB0201C5F313044FEA3B
:1005B0000B3343EA14534FEA0432019C43EA060327
:1005C000A4F10C040294009CCDE900B400F0FCFD01
:1005D00003B0BDE8F08F00200146F9E72DE9F04DAA
:1005E00081EA030404F0004B21F0004514464FF06B
:1005F000000A23F0004150EA050220D054EA01022B
:100600001DD0C5F30A570246C5F31303C1F3130007
:10061000C1F30A5640F4801543F48013A7EB060893
:10062000101BD64608F2FD3873EB050002D308F123
:10063000010801E092185B41B8F1000F03DA0020D5
:100640000146BDE8F08D00204FF480110646844637
:100650000EE0171B73EB050705D3121B63EB0503B5
:1006600006434CEA010C49084FEA300092185B41FE
:1006700050EA0107EDD152EA030012D082EA0400E9
:1006800083EA0501084305D0101BAB4106D20122C5
:10069000002306E000224FF0004302E06FF0010269
:1006A00053101AEB06004CEB085110EB0A0041EB1B
:1006B0000B01BDE8F04D00F078BD0EB5C10F80EA2A
:1006C000E0700844CA07002140F233438DE80E0071
:1006D0000A460B4600F078FD03B000BD0EB540F2AF
:1006E000334102910021CDE900110A460B4600F08A
:1006F0006BFD03B000BD70B5C1F30A5201F00045B7
:100700000024C1F3130140F2FF3341F480119A42F7
:1007100001DA002070BD40F233439A42A2F2334224
:1007200003DC524200F0BCF800E090402C43F1D0D2
:10073000404270BD00F0004230F000400AD0C10DD0
:1007400001F56071C0F3160042EA0151C20840078A
:1007500011437047002001467047000030B5041E69
:1007600071F1000404DB4FF00044404264EB0101EE
:10077000141E73F1000405DB1C464FF00043524287
:1007800063EB04038B4208BF824230BD30B5041EC8
:1007900071F1000404DB4FF00044404264EB0101BE
:1007A000141E73F1000405DB1C464FF00043524257
:1007B00063EB0403994208BF904230BD01F000434F
:1007C00030B421F0004150EA010206D00A0DA2F532
:1007D0006072C1F31301002A02DC30BC00207047B4
:1007E000440F44EAC104C100E01830BC00EBC25021
:1007F00000F0A4BC30B50B460146002020220124A5
:1008000009E021FA02F59D4205D303FA02F5491BDE
:1008100004FA02F52844151EA2F10102F1DC30BDF4
:100820002DE9F05F0546002092469B468846064625
:10083000814640241BE0284641464746224600F0B8
:100840002FF853465A46C01A914110D31146184604
:10085000224600F016F82D1A67EB01084F46224693
:100860000120002100F00DF817EB00094E41201E79
:10087000A4F10104DFDC484631462A464346BDE880
:10088000F09F202A04DB203A00FA02F10020704792
:100890009140C2F1200320FA03F3194390407047BE
:1008A000202A04DB203A21FA02F00021704721FAC5
:1008B00002F3D040C2F1200291400843194670472C
:1008C000202A06DBCB17203A41FA02F043EAE07314
:1008D00006E041FA02F3D040C2F120029140084301
:1008E000194670472DE9FF4F1C4681B00021D4E91D
:1008F000016791464FF0FF358A468846A1696D1C15
:1009000002988847216A834688470028F6D1BBF1C0
:10091000FF3F0CD026F4C066002F1ADD700615D5F7
:10092000BBF12B0F0AD0BBF12D0F0FD104E04FF01C
:10093000FF3005B0BDE8F08F46F48066A1696D1CFC
:10094000029888477F1E8346002F02DDBBF1300FDF
:1009500003D0B9F1000F2AD025E0A1696D1C46F43F
:1009600000767F1E029888478346002F05DDBBF185
:10097000780F06D0BBF1580F03D0B9F1000F10D09B
:1009800011E0B9F1000F02D0B9F1100F0BD1A1693C
:100990006D1C26F400767F1E02988847834610203F
:1009A00000E0082081464FEAE970009017E00A2035
:1009B000F8E74346AAFB092803FB0980DDF800C0DD
:1009C0007F1E0AFB0C0112EB0B0A41EBEB78A169CD
:1009D00046F4007605F10105029888478346002F0A
:1009E00006DD4946584600F08CFC5FEA000BE0D576
:1009F000E16902988847B00502D46FF0010098E7DA
:100A0000F00718D1700610D57005514605D50023A2
:100A1000D1EB030163EB080200E042462068031DAE
:100A200023600068C0E9001205E02068011D216014
:100A30000068C0E900A828467BE72DE9FF5F1D4656
:100A40004FF0FF3BD5E9014691465F464FF0000865
:100A5000A9697F1C01988847296A8246884700282F
:100A6000F6D1BAF1FF3F0CD024F4C064002E19DD9A
:100A7000600614D5BAF12B0F09D0BAF12D0F0ED1A3
:100A800003E0584604B0BDE8F09F44F48064A969CF
:100A90007F1C01988847761E8246002E02DDBAF13F
:100AA000300F03D0B9F1000F26D032E0A969761ECD
:100AB00044F400747F1C019888478246002E05DDAF
:100AC000BAF1780F06D0BAF1580F03D0B9F1000F80
:100AD00010D01EE0B9F1000F02D0B9F1100F18D1FB
:100AE000A969761E24F400747F1C01988847824609
:100AF000102002E0082000E00A20814609E008FBFF
:100B00000908A969761E44F400747F1C019888477F
:100B10008246002E05DD4946504600F0F2FB0028D3
:100B2000EDDAE96901988847A00502D46FF0010069
:100B3000A8E7E00725D1600613D5600502D5C8F106
:100B4000000000E0404629680A1D2A600968220565
:100B500001D5087015E0220701D5088011E0086072
:100B60000FE02868011D29600068210502D580F882
:100B7000008006E0210702D5A0F8008001E0C0F85F
:100B8000008038467EE72DE9FF5FD2E901A74FF0EC
:100B90000008916999461446DDF838B04646019838
:100BA0008847054659EA0B0005D009E0A169761C83
:100BB000019888470546216A284688470028F5D1CC
:100BC000681C03D05FEACA7005D015E04FF0FF3013
:100BD00004B0BDE8F09F2068011D2160D0F80080BE
:100BE0000AE05FEACA7001D108F8015BA169761CCE
:100BF0007F1E019888470546002F1ADD681C18D013
:100C0000B9F1000F0DD0E81705EBD060421120F0CC
:100C10001F0059F822102A1A012090400142E0D109
:100C200007E0BBF1000FDCD1216A28468847002885
:100C3000D7D0E16901988847BBF1000F07D1002E9A
:100C400005DD5FEACA7002D1002188F80010A068B3
:100C5000B84203DDBBF1000F03D017B16FF0010004
:100C6000B6E73046B4E700002DE9FF4F087883B0BF
:100C70009946FF2805D0491C2D2804D000240020C7
:100C800008E000200BE00124F9E700EB800003EB13
:100C90004000491C0B78FF2BF7D104B140420023E0
:100CA0000293147819461D462D2C01D02B2C04D10B
:100CB000521C2D2C13D000240294AA461478FF2C29
:100CC0000FD00A25A3FB057801FB05814FF0000C2E
:100CD00003FB0C11521CE3194AEB0101EEE701245E
:100CE000EAE7814453EA010002D019F5C87F06DA29
:100CF00003980021C0E9001107B0BDE8F08F00257E
:100D0000AE4E2F46DFF8B882184600F03FFDCDE921
:100D10000001B9F1000002DAC9F1000400E0044664
:100D20000023A74A1AEB030B42EB045A12E0E00738
:100D300007D02A46334638464146FFF7DDFB0746D3
:100D400088462A46334610461946FFF7D5FB054626
:100D50000E466410002CEAD1DDE90001B9F1000F64
:100D60005A46534606DAFFF739FC3A464346FFF740
:100D700035FC05E0FFF7C0FB3A464346FFF7BCFBF6
:100D8000029A0AB181F00041039AC2E90001B3E777
:100D90002DE9FF4F1F468DB0D7E901464FF0FF38D0
:100DA0002E2045464FF000090B90B9696D1C0E9836
:100DB0008847396A824688470028F6D1BAF1FF3F52
:100DC0000AD024F4D064002E11DDBAF12B0F08D024
:100DD000BAF12D0F0BD102E0404611B08DE744F47B
:100DE0008064B9696D1C0E9888478246761E6946F4
:100DF000600501D52D2000E02B208DF8000001F1C9
:100E0000010B0DF1200809E0B9696D1C0E988847A7
:100E100082460F9844F40074761E0560002E02DDB1
:100E2000BAF1300FF0D00B998A453ED144F08004DE
:100E300006E00F99681CA9F1010944F400740860E8
:100E4000B9696D1C761E0E98884782463028F0D00E
:100E50002BE00B998A4505D1200603D444F0800489
:100E6000761E18E0504604F02BFC08B30DF1130178
:100E7000761E44F400748B4508D2AAF130000BF8BA
:100E8000010B200607D5A9F1010003E0200602D4DA
:100E900009F101008146A00502D50F99681C086080
:100EA000B9696D1C0E9888478246002ED1DC53E04C
:100EB000002E51DDBAF1650F02D0BAF1450F4BD1CA
:100EC000A00549D5B9696D1C24F44074761E0E98AE
:100ED00088478246002E0CDD2B2804D0BAF12D0F56
:100EE00007D144F48074B9696D1C0E988847824616
:100EF000761EE00501D52D2100E02B2108F8011B0D
:100F0000CDF82C8021E00DF12901761E44F4007407
:100F100088450CD2AAF1300010F0FF0088F80000DC
:100F200002D10B99884509D908F1010806E0E005CE
:100F300001D5244801E042F20F708146B9696D1C69
:100F40000E98884782460F980560002E04DD5046B3
:100F500004F0B6FB0028D6D1F9690E988847FF2027
:100F60008BF8000088F800000020069007904B46A0
:100F70006A4608A906A8FFF777FEA00502D46FF01D
:100F800001002AE714F0240F0AD0E00714D1DDE9AC
:100F900006123868031D3B600068C0E900120BE0D0
:100FA000DDE90601FFF70AFC0146E00704D13868D5
:100FB000021D3A600068016028460EE700001440F8
:100FC0000000F03FF1D8FFFF026811441378016080
:100FD00018467047D16004495161044911620021EB
:100FE0001161114600F09CB9C90F0008F112000808
:100FF000426842B1016811F8013B23B1521EC0E9B9
:101000000012184670470121C160881E704742686F
:101010005AB1C368016843B983688B4205D0491E41
:10102000521CC0E90012002070474FF0FF3070479B
:101030000FB4002300B589B00CA900910B996FF093
:101040000042CB601E4B06931E4B07930423CDE951
:1010500001321D4A089202466B460020FFF798FEB7
:1010600009B05DF814FB70B586B006464FF0FF304E
:101070000091CDE90101002015460C46049032464E
:10108000694604A8FFF7D4FF02460498211825B149
:1010900008B1084600E020462860049800280DD0DA
:1010A000002A02DD0098884208D0081B0094CDE990
:1010B00001043246694604A8FFF7BAFF06B070BDC6
:1010C000F10F00080F100008F11200082DE9F04799
:1010D00091460F4680460446002614F8015B2DB168
:1010E00000F002F90068405DC007F6D12B2D02D058
:1010F0002D2D18D0641E4A463946204600F0A6FA27
:1011000027B13968A14201D1C7F8008071054FF0BD
:1011100002040BD54042002803DD03F0A5FA046069
:10112000A007BDE8F08746F48066E4E70028F8DA17
:1011300003F09AFA04606FF00040F2E70029A8BFBC
:101140007047401C490008BF20F00100704710B4F0
:10115000B0FA80FC00FA0CF050EA010404BF10BCA5
:10116000704749B1CCF1200421FA04F411FA0CF1D2
:1011700018BF012121430843A3EB0C01CB1D4FEA0B
:1011800000614FEA102042BF002010BC704700EB06
:10119000C35010440029A4BF10BC7047401C490034
:1011A00008BF20F0010010BC704710B5141E73F189
:1011B000000408DA401C41F1000192185B411A4317
:1011C00001D120F0010010BD2DE9F04D92469B4663
:1011D00011B1B1FA81F202E0B0FA80F22032904609
:1011E000FFF74FFB04460F4640EA0A0041EA0B01B5
:1011F00053465A46084313D0114653EA010019D00A
:10120000C8F140025046FFF74BFB05460E465046DC
:1012100059464246FFF735FB084305D0012004E05C
:1012200020463946BDE8F08D0020054346EAE076C9
:101230002C4337430A986305E40AA0EB0800002218
:10124000FD0A44EA47540A3002D500200146E9E786
:10125000010510196941DDE9084500196941BDE83A
:10126000F04DA2E770B521F0004303430CD0C1F369
:101270000A550024D5EB040564EB0403D617AD1A18
:10128000B34102DB0020014670BD201841EB025142
:1012900070BDC1F30A52C1F3130140F2FF3341F4B0
:1012A00080119A4202DA00200146704740F233432F
:1012B0009A42A2F2334202DC5242FFF7F1BAFFF740
:1012C000E0BA0000064C074D06E0E06840F001037C
:1012D00094E8070098471034AC42F6D3FEF758FF65
:1012E0008CA80008ACA80008004870475CA500085E
:1012F00010B50446FFF7F8FF0068005D00F001003C
:1013000010BD3A2800D2303820F02002412A01D303
:10131000A2F13700884201D34FF0FF307047000040
:101320002DE9F34F8BB04FF0000801F10C000C4693
:101330004FF0010B46460DF1080A01906269012148
:1013400001989047051E2DD0252D2CD0216A884765
:10135000C0B16269012101989047216A884700283D
:10136000F7D1411E62690198904700E0761CA1699F
:101370000B988847216A88470028F7D1E1690B98C4
:101380008847DBE7A1690B9888470746A84201D147
:10139000761CD3E7E1690B9888477F1C02D1B8F12E
:1013A000000F6FD046E1002762693D46394601983B
:1013B00090472A2804D162690121019890470125AC
:1013C000DFF884926269012101989047A0F1300111
:1013D0000A290AD24F45E5DC07EB870100EB4107FC
:1013E000303FDFD445F01005ECE7E90601D46FF09B
:1013F00000476C280AD04C2814D0682815D06A28D9
:101400000DD074281CD07A281AD01DE06269012101
:10141000019890476C2802D045F0040514E045F08F
:1014200002050DE045F020050AE0626901210198FE
:101430009047682802D045F0080505E045F40065AE
:101440006269012101989047C4E9015765283DD0A0
:1014500019DC58287AD00CDC452837D004DC252844
:1014600026D0412831D131E046282FD047282CD131
:101470002CE05B2877D0612828D063287CD06428B2
:1014800023D15AE0D0E06F2848D008DC66281DD070
:1014900067281BD0692821D06E2816D127E0702834
:1014A00045D0732868D0752847D078280DD14DE0F5
:1014B000A1690B988847054625283FF469AFE16983
:1014C0000B9888476D1C3FF46AAFB3E023466A4629
:1014D0006FF001000B99FFF75BFC9EE045F04000C8
:1014E0006060A80723464FF0000236D43EE0E807CC
:1014F0007FF447AF2068011D21600068290501D5F0
:1015000006701BE7290701D5068017E7A90703D551
:10151000F117C0E9006111E706600FE745F04000F0
:101520006060A80723464FF0080216D41EE040F67C
:101530000E0125EA0100606016E045F040006060A1
:10154000A80723464FF00A0207D40FE045F04000F9
:101550006060A80708D5234610226FF001000B99A0
:10156000FFF7C0F959E007E0234610226FF00100B1
:101570000B99FFF762FA50E04FF000094F464B46D7
:10158000632802D05B2806D040E0E80601D40120A1
:10159000A06001273AE062690121019890475E2826
:1015A00005D14FF0010962694946019890472169C8
:1015B00039B900210A46534643F82120491C08291D
:1015C000FADBB0B3216969B9C11700EBD1625311DD
:1015D0000AEB830122F01F02821A01200B6890405F
:1015E00003430B6062690121019890475D28E8D1AF
:1015F000B9F1000F09D00020514651F82020D24304
:1016000041F82020401C0828F7DB02AB2246009757
:101610006FF001000B99FFF7B6FA00280CDA401CB6
:1016200008D1BBF1000F05D04FF0FF300DB0BDE881
:10163000F08FFFE74046F9E7E90701D108F101081B
:1016400006444FF0000B79E6CCCCCC0C2DE9F05FD2
:1016500082460078002715468B460AF10104B946F8
:10166000302801D09DB113E014F8010B0127782830
:1016700003D0582801D045B10AE00DB1102D07D193
:101680000027102514F8010B02E0082500E00A25C8
:101690000026B0460EE005FB080005FB06F1012719
:1016A00001EB10461FFA80F8B6F5803F00D3B9462B
:1016B00014F8010B2946FFF724FE0028EBDABBF1F2
:1016C000000F05D00FB1641E00E05446CBF8004077
:1016D000B9F1000F06D002F0C7FF02210160C81E59
:1016E000BDE8F09F48EA0640FAE72DE9F04D0023F7
:1016F0001A461B1A8A4103DB00200146BDE8F08D23
:10170000C1F30A52C1F3130141F480154FF0000BED
:10171000D10702D100186D41521E0027044640F245
:10172000FF11384601EB620A3E4680460246002021
:101730004FF48011FFF7B4F8C2197141BB1846EBA2
:101740000100B4EB030C75EB000C04D3E41A65EB59
:10175000000517460E46241908F101006D41804628
:101760003428E3DDF91946EB0600091BA84103D232
:101770004FF0FF32134601E0002213461BEB070037
:1017800046EB0A51BDE8F04DFFF70FBD0EB540F234
:10179000334202920022CDE900221346FFF714FDE6
:1017A00003B000BD70B58C1810F8015B15F007038D
:1017B00001D110F8013B2A1106D110F8012B03E0EA
:1017C00010F8016B01F8016B5B1EF9D12B0705D4F2
:1017D0000023521E0DD401F8013BFAE710F8013B3B
:1017E000CB1A921C03E013F8015B01F8015B521E57
:1017F000F9D5A142D8D3002070BD21B1826842F052
:101800000102826003E0826822F001028260704778
:101810000021084A1168084A1140D0E900231A4300
:1018200083681A43C3681A431143044AC2F8041375
:101830007047000004230140E030FCFF002001401D
:101840000146C86C80B270470246002013680B4006
:101850000BB1012000E000207047000030B50246C7
:10186000002000235068104C20400D790C6844EA99
:1018700005242043506090680C4C2040D1E903546B
:101880002C438D682C434D7944EA450420439060F5
:10189000D06A20F470000C7D641EE4B2234340EA59
:1018A0000350D06230BD0000FFFEFFFCFDF7FFC01B
:1018B000F0B504460D4600200021092D11DDE06839
:1018C000A5F10A0606EB4607072606FA07F1884344
:1018D000A5F10A0606EB460603FA06F10843E060A6
:1018E0000CE0206905EB4507072606FA07F1884357
:1018F00005EB450603FA06F108432061072A0FDAD3
:10190000606B561E06EB86071F2606FA07F1884312
:10191000561E06EB860605FA06F10843606322E0D0
:101920000D2A0FDA206BD61F06EB86071F2606FA54
:1019300007F18843D61F06EB860605FA06F1084331
:10194000206310E0E06AA2F10D0606EB86071F2671
:1019500006FA07F18843A2F10D0606EB860605FAA2
:1019600006F10843E062F0BD816841F0804181608A
:10197000704700001CB50121202001F005FC4FF448
:101980008070009001208DF8040000208DF8060082
:1019900003208DF8050000208DF8070069460248F5
:1019A00000F024FB1CBD00000014024000BFFEE755
:1019B0001CB50121402001F0E7FB4FF400700090BE
:1019C00001208DF8040000208DF8060003208DF81A
:1019D000050000208DF807006946044800F006FB6A
:1019E0004FF40071014800F077FB1CBD0018024065
:1019F00010B5002400F07EF803E0012004F0C2FBE3
:101A0000641C4FF400710F4800F05BFB012801D10A
:101A1000642CF2DB642C01DD002010BD002403E007
:101A2000012004F0AFFB641C4FF40071054800F086
:101A300048FB08B9642CF3DB642C01DD0020ECE7E3
:101A40000120EAE7001802402DE9F0410446002693
:101A500000F080F8FFF7CCFFF8B100250CE000277C
:101A600005E07006060E00F01BF806437F1C082FE9
:101A7000F7DB665500266D1C052DF0DB20786178BC
:101A80000844A1780844E17808442179884202D1C9
:101A90000120BDE8F0810020FBE70020F9E700000D
:101AA00010B5002403E0012004F06CFB641C4FF42B
:101AB00000710F4800F005FB012801D1642CF2DB16
:101AC000002403E0012004F05DFB641C4FF400716E
:101AD000074800F0F6FA08B9642CF3DB282004F07C
:101AE00051FB4FF40071024800F0EBFA10BD00000A
:101AF000001802401CB50121402001F045FB4FF4C5
:101B00000070009000208DF804008DF807006946F1
:101B1000014800F06BFA1CBD001802401CB5012101
:101B2000402001F031FB4FF40070009001208DF84F
:101B3000040000208DF8060003208DF80500002029
:101B40008DF807006946024800F050FA1CBD0000FD
:101B50000018024010B5FFF7E1FF4FF400710A488A
:101B600000F0BAFA4FF40071074800F0B3FA1420FD
:101B700004F0EAFA4FF40071034800F0ADFA1E20B9
:101B800004F000FB10BD0000001802407047000088
:101B90000149086070470000143C014000212349BE
:101BA0008279002A3AD00A46126803689A430B46A3
:101BB0001A600A1D126803689A430B1D1A600279A5
:101BC00011440A6803681A430A60184A0832126806
:101BD00003689A43154B08331A601A1D126803688C
:101BE0009A43124B0C331A604279102A0ED11A1FF5
:101BF000126803681A430D4B08331A601A1D1268E5
:101C000003681A43094B0C331A600DE00749427907
:101C100011440A6803681A430A6005E00279114416
:101C20000A6803689A430A6070470000003C01405C
:101C300010B504F097FC04462CB143A002F0D8FC88
:101C40004FF0FF3010BD4CA002F0D2FC4FF4FA7000
:101C500004F07AFA4FF4FA7004F076FA04F0AEFC6D
:101C600004462CB150A002F0C3FC6FF00100E9E77C
:101C700053A002F0BDFC4FF4FA7004F065FA4FF483
:101C8000FA7004F061FA4FF4FA7004F05DFA4FF460
:101C9000FA7004F059FA04F0EDFA04462CB14EA0A3
:101CA00002F0A6FC6FF00200CCE751A002F0A0FC0D
:101CB0004FF4FA7004F048FA4FF4FA7004F044FA62
:101CC0004FF4FA7004F040FA4FF4FA7004F03CFA62
:101CD000002004F0E5FB04462CB14BA002F088FC88
:101CE0006FF00300AEE750A002F082FC4FF4FA70F0
:101CF00004F02AFA4FF4FA7004F026FA4FF4FA705E
:101D000004F022FA50A153A004F0F0FA04462CB1DA
:101D100051A002F06DFC6FF0040093E755A002F0B3
:101D200067FC4FF4FA7004F00FFA4FF4FA7004F005
:101D30000BFA4FF4FA7004F007FA4FF4FA7004F05B
:101D400003FA00207EE70000657370383236365F94
:101D5000657869745F7472616E73706172656E74B8
:101D60005F7472616E736D697373696F6E20666103
:101D7000696C0D0A00000000657370383236365FFA
:101D8000657869745F7472616E73706172656E7488
:101D90005F7472616E736D697373696F6E207375B2
:101DA00063636573730D0A00657370383236365F8E
:101DB0007265736574206661696C0D0A000000002D
:101DC000657370383236365F72657365742073756B
:101DD00063636573730D0A00657370383236365F5E
:101DE000636865636B206661696C0D0A0000000022
:101DF000657370383236365F636865636B20737560
:101E000063636573730D0A00657370383236365F2D
:101E1000656E61626C655F6563686F283029206656
:101E200061696C0D0A000000657370383236365FE8
:101E3000656E61626C655F6563686F2830297375D4
:101E400063636573730D0A0071617A777378313259
:101E50000000000063776B00657370383236365FC0
:101E6000636F6E6E6563745F6170206661696C0D8F
:101E70000A000000657370383236365F636F6E6E2D
:101E80006563745F617020737563636573730D0AB6
:101E90000000000010B50121084601F095F901216C
:101EA000102001F071F94FF400701C490860022005
:101EB000087103204871002088710120C8711848FA
:101EC00000F094F801220921154800F0D7F844F2F7
:101ED0009F101449088063204860002008814880D2
:101EE0008872114801F00AFF602010490880012023
:101EF000488032208860002088810B4801F0C0FEB5
:101F00000121094801F0ACFE0121074801F090FED3
:101F10000121054801F098FE10BD000030000020AE
:101F2000001002403C050020000001404805002050
:101F30001CB50121102001F027F94FF4007000902A
:101F400001208DF8040000208DF8060003208DF894
:101F5000050000208DF807006946044800F046F8A7
:101F60004FF40071014800F0B5F81CBD00100240AC
:101F700000B58DB00121080201F026F901210220EF
:101F800001F002F902200B9003208DF830000020B0
:101F90008DF833000BA9134800F028F800200790B3
:101FA000089009900A9007A8FFF732FC00200190E2
:101FB0008DF808008DF809000390059001208DF838
:101FC000180001A90848FFF749FC00230122092154
:101FD0000548FFF76DFC01210348FFF70EFC0DB02B
:101FE00000BD00000004024000200140F0B50A4698
:101FF00000210023002400BF3DE0012505FA01F384
:10200000156805EA03049C4234D105684F00032695
:10201000BE40B543056015794E00B54006683543AE
:1020200005601579012D02D01579022D16D185682C
:102030004F000326BE40B543856055794E00B5403C
:10204000866835438560456801268E40B543456006
:10205000456896798E40B6B235434560C5684F00F5
:102060000326BE40B543C560D5794E00B540C6686D
:102070003543C560491C1029BFD3F0BDF0B500231E
:1020800000244D07ED0E02FA05F3CE1000F12005F5
:1020900055F826504E07F70E0F26BE40B543CF1019
:1020A00000F1200646F82750CE1000F1200555F823
:1020B000265045EA0304CE1000F1200545F82640DD
:1020C000F0BD0246002013690B400BB1012000E077
:1020D00000207047418370470183704710B569E065
:1020E000502236A139A004F069F9C4B22CB138A04D
:1020F00002F07EFA6FF0060010BD3EA002F078FA02
:10210000642004F021F804F0CBF8C4B23CB142A042
:1021100002F06EFA00BFFFF78BFD0028FBD148A04C
:1021200002F066FA642004F00FF8642004F00CF862
:1021300004F0D6F9C4B22CB14CA002F059FA6FF0F9
:102140000500D9E755A002F053FA642003F0FCFF24
:102150005F4804F06DFA142003F0F6FF642003F0EA
:10216000F3FF04F0FFF9C4B22CB15AA002F040FA18
:102170004FF0FF30C0E763A002F03AFA642003F0AA
:10218000E3FF6C496CA002F033FA03F02DFF80B13D
:1021900004F06CF9C4B22CB169A002F029FA4FF036
:1021A000FF30A9E76FA002F023FA642003F0CCFF10
:1021B00001E000BF94E700BF00209DE77175616EEC
:1021C0002E73756E696E672E636F6D0054435000F9
:1021D000657370383236365F636F6E6E656374692F
:1021E0006F6E5F746172676574206661696C0D0A59
:1021F00000000000657370383236365F636F6E6EB4
:10220000656374696F6E5F7461726765742073755E
:1022100063636573730D0A00657370383236365F19
:10222000636865636B5F636F6E6E656374696F6E21
:102230005F737461747573206661696C0D0A0000C8
:10224000657370383236365F636865636B5F636FE2
:102250006E6E656374696F6E5F73746174757320FD
:10226000737563636573730D0A00000065737038DE
:102270003236365F656E7472795F7472616E737038
:102280006172656E745F7472616E736D6973736988
:102290006F6E206661696C0D0A000000657370380E
:1022A0003236365F656E7472795F7472616E737008
:1022B0006172656E745F7472616E736D6973736958
:1022C0006F6E20737563636573730D0A0000000001
:1022D00034A80008657370383236365F65786974E3
:1022E0005F7472616E73706172656E745F74726137
:1022F0006E736D697373696F6E206661696C0D0A28
:1023000000000000657370383236365F6578697496
:102310005F7472616E73706172656E745F74726106
:102320006E736D697373696F6E2073756363657324
:10233000730D0A006A0B002025730D0A00000000CF
:10234000657370383236365F646973636F6E6E65BD
:1023500063745F736572766572206661696C0D0ADD
:1023600000000000657370383236365F646973634D
:102370006F6E6E6563745F736572766572207375D8
:1023800063636573730D0A0010B500BFFFF750FC5F
:102390000028FBD1502235A139A004F00FF8C4B2B7
:1023A0002CB138A002F024F96FF0060010BD3EA059
:1023B00002F01EF94FF4967003F0C6FE03F070FFB2
:1023C000C4B23CB141A002F013F900BFFFF730FCEA
:1023D0000028FBD147A002F00BF94FF47A7003F00C
:1023E000B3FE4FF47A7003F0AFFE04F079F8C4B294
:1023F0002CB14BA002F0FCF86FF00500D6E754A01A
:1024000002F0F6F84FF47A7003F09EFE5D4804F097
:102410000FF9142003F098FE04F0A4F8C4B22CB114
:1024200059A002F0E5F84FF0FF30BFE762A002F0DC
:10243000DFF84FF47A7003F087FE6B496BA002F06F
:10244000D7F802F06DF804F011F8C4B22CB169A00D
:1024500002F0CEF84FF0FF30A8E76FA002F0C8F806
:1024600041F2883003F070FE00209FE76170692E12
:1024700073656E6976657273652E636F6D0000001B
:1024800054435000657370383236365F636F6E6E3A
:10249000656374696F6E5F746172676574206661ED
:1024A000696C0D0A00000000657370383236365FC3
:1024B000636F6E6E656374696F6E5F74617267657A
:1024C0007420737563636573730D0A0065737038E8
:1024D0003236365F636865636B5F636F6E6E65632C
:1024E00074696F6E5F737461747573206661696C73
:1024F0000D0A0000657370383236365F63686563B5
:102500006B5F636F6E6E656374696F6E5F7374612A
:1025100074757320737563636573730D0A0000002F
:10252000657370383236365F656E7472795F7472B7
:10253000616E73706172656E745F7472616E736DDB
:10254000697373696F6E206661696C0D0A00000023
:10255000657370383236365F656E7472795F747287
:10256000616E73706172656E745F7472616E736DAB
:10257000697373696F6E20737563636573730D0A96
:1025800000000000ACA70008657370383236365F73
:10259000657869745F7472616E73706172656E7470
:1025A0005F7472616E736D697373696F6E206661BB
:1025B000696C0D0A00000000657370383236365FB2
:1025C000657869745F7472616E73706172656E7440
:1025D0005F7472616E736D697373696F6E2073756A
:1025E00063636573730D0A006A0B002025730D0A7F
:1025F00000000000657370383236365F64697363BB
:102600006F6E6E6563745F73657276657220666166
:10261000696C0D0A00000000657370383236365F51
:10262000646973636F6E6E6563745F7365727665FC
:102630007220737563636573730D0A0000BFFEE754
:102640001CB50121022000F09FFD01208DF804003F
:1026500003208DF8050001208DF806008DF8070095
:102660004002009069460A48FFF7C0FC4FF48070B2
:10267000009069460648FFF7B9FC4FF40071044822
:10268000FFF72AFD4FF480710148FFF725FD1CBDBF
:10269000000402401CB50121022000F075FD00205D
:1026A0008DF8040001208DF8070040020090694673
:1026B0000148FFF79BFC1CBD000402401CB5012132
:1026C000022000F061FD01208DF8040003208DF848
:1026D000050000208DF8060001208DF8070040025B
:1026E000009069460148FFF781FC1CBD00040240D0
:1026F00070B505460024FFF7E1FF4FF480711B48D9
:10270000FFF7E8FC4FF400711848FFF7E3FC0520E1
:1027100003F038FD00BF25E0C4F107010120884027
:10272000284028B14FF400711048FFF7D5FC04E0B1
:102730004FF400710D48FFF7CDFC052003F022FD9A
:102740004FF480710948FFF7C7FC052003F01AFD1C
:102750004FF480710548FFF7BDFC052003F012FD22
:10276000601CC4B2082CD7DB70BD0000000402401E
:1027700010B5FFF7A3FF4FF400710A48FFF7ACFC58
:102780004FF480710748FFF7A7FC052003F0FAFC1F
:102790004FF400710348FFF79DFC052003F0F2FCA5
:1027A00010BD00000004024010B5FFF787FF4FF492
:1027B00000710E48FFF78EFC4FF480710B48FFF755
:1027C00089FC052003F0DEFC4FF480710748FFF719
:1027D00083FC052003F0D6FC4FF400710348FFF79B
:1027E0007BFC052003F0CEFC10BD0000000402407D
:1027F00010B5FFF74FFF4FF480710C48FFF76CFCEA
:10280000052003F0BFFC4FF400710848FFF759FCA6
:1028100008B1002400E001244FF480710348FFF761
:1028200059FC052003F0AEFC204610BD0004024018
:102830001CB50121102000F0A7FC0820009000200A
:102840008DF804008DF8070069460748FFF7CEFBB6
:102850000420009000208DF804008DF807006946E0
:102860000148FFF7C3FB1CBD001002401CB501214D
:10287000202000F089FC0121102000F085FC4FF49D
:10288000C060009001208DF8040000208DF8060043
:1028900003208DF8050000208DF8070069460448E4
:1028A000FFF7A4FB4FF480610148FFF715FC1CBD46
:1028B0000014024000B58DB00121880200F084FCB4
:1028C0000121202000F060FC80200B9003208DF877
:1028D000300000208DF833000BA91348FFF786FB6A
:1028E00000200790089009900A9007A8FEF790FF33
:1028F000002001908DF808008DF8090003900590E4
:1029000001208DF8180001A90848FEF7A7FF002351
:10291000012205210548FEF7CBFF01210348FEF700
:102920006CFF0DB000BD0000001402400022014009
:1029300000BFFEE71CB50121082000F025FC4FF484
:102940000740009001208DF8040000208DF806005B
:1029500003208DF8050069460148FFF747FB1CBDC1
:10296000000C024010B54FF480712D48FFF7B4FB06
:102970004FF400712A48FFF7ADFB4FF480612848FF
:10298000FFF7A8FB4FF400412548FFF7A5FB022005
:1029900003F0DAFB4FF480712148FFF79BFB4FF403
:1029A00000711F48FFF796FB4FF480611C48FFF74A
:1029B00093FB4FF400411A48FFF78EFB022003F00F
:1029C000C3FB4FF480711648FFF784FB4FF400718E
:1029D0001348FFF781FB4FF480611148FFF77CFB40
:1029E0004FF400410E48FFF775FB022003F0ACFBEB
:1029F0004FF480710A48FFF76FFB4FF400710848ED
:102A0000FFF76AFB4FF480610548FFF763FB4FF463
:102A100000410348FFF75EFB022003F095FB10BD69
:102A2000000C024010B54FF480712D48FFF754FBA5
:102A30004FF400712A48FFF74FFB4FF4806128489C
:102A4000FFF748FB4FF400412548FFF743FB022006
:102A500003F07AFB4FF480712148FFF73BFB4FF402
:102A600000711F48FFF738FB4FF480611C48FFF7E7
:102A700033FB4FF400411A48FFF72CFB022003F010
:102A800063FB4FF480711648FFF724FB4FF400718D
:102A90001348FFF71FFB4FF480611148FFF71CFB41
:102AA0004FF400410E48FFF717FB022003F04CFBE8
:102AB0004FF480710A48FFF70FFB4FF4007108488C
:102AC000FFF708FB4FF480610548FFF703FB4FF465
:102AD00000410348FFF700FB022003F035FB10BD67
:102AE000000C024010B5002440F25B723EA14AA0E7
:102AF00003F064FC04462CB148A001F079FD6FF0AE
:102B0000040010BD4DA001F073FD1E2003F01CFB5E
:102B100003F0C6FB04463CB151A001F069FD00BFC3
:102B2000FFF786F80028FBD157A001F061FD4FF4B4
:102B3000FA7003F009FB4FF4FA7003F005FB4FF451
:102B4000FA7003F001FB4FF4FA7003F0FDFA03F0A2
:102B5000C7FC04462CB157A001F04AFD6FF00500F8
:102B6000CFE760A001F044FD4FF4FA7003F0ECFAF7
:102B70004FF4FA7003F0E8FA4FF4FA7003F0E4FA55
:102B80004FF4FA7003F0E0FA634A64A1684803F076
:102B9000E9FE28B167A001F02BFD6FF00600B0E759
:102BA00069A001F025FD4FF4FA7003F0CDFA4FF45F
:102BB000FA7003F0C9FA4FF4FA7003F0C5FA4FF453
:102BC000FA7003F0C1FA0122002165A004F064FA52
:102BD00028B170A001F00CFD6FF0070091E774A020
:102BE00001F006FD00208CE7696F742D30367A30D5
:102BF00030686F6B3434776F3868792E6D71747408
:102C00002E696F746875622E616C6979756E637375
:102C10002E636F6D000000005443500065737038E0
:102C20003236365F636F6E6E6563745F736572769E
:102C30006572206661696C0D0A000000657370386A
:102C40003236365F636F6E6E6563745F736572767E
:102C5000657220737563636573730D0A000000006D
:102C6000657370383236365F636865636B5F636FB8
:102C70006E6E656374696F6E5F73746174757320D3
:102C80006661696C0D0A0000657370383236365F14
:102C9000636865636B5F636F6E6E656374696F6EA7
:102CA0005F73746174757320737563636573730DFB
:102CB0000A000000657370383236365F656E7472D4
:102CC000795F7472616E73706172656E745F747235
:102CD000616E736D697373696F6E206661696C0DE7
:102CE0000A000000657370383236365F656E7472A4
:102CF000795F7472616E73706172656E745F747205
:102D0000616E736D697373696F6E2073756363654C
:102D100073730D0A0000000038A6000844485431BF
:102D200031266B307762337A716357453700000084
:102D30007CA600086D7174745F636F6E6E6563745A
:102D4000206661696C0D0A006D7174745F636F6E4B
:102D50006E65637420737563636573730D0A000099
:102D60002F7379732F6B307762337A7163574537DE
:102D70002F44485431312F7468696E672F73657220
:102D8000766963652F70726F70657274792F7365E1
:102D9000740000006D7174745F737562736372699F
:102DA00062655F746F706963206661696C0D0A000B
:102DB0006D7174745F7375627363726962655F7459
:102DC0006F70696320737563636573730D0A000028
:102DD0007047000070B5002100230F22C4781CB397
:102DE000174C246804F4E064C4F5E064C4F30721DC
:102DF000C1F10404E3B20A4144789C40E1B2847812
:102E0000144021430C07210E0E4C057861550478BF
:102E100004F01F050124AC4005786D11AD0005F1EB
:102E2000E025C5F8004109E0047804F01F050124FD
:102E3000AC40054D0678761145F8264070BD00007F
:102E40000CED00E000E400E080E100E070B500245B
:102E50000EE00021204600F09FF8002504E000204D
:102E600000F076F9681CC5B2802DF8DB601CC4B296
:102E7000082CEEDB70BD2DE9F05F06460F4690464C
:102E80001C46DDF828A04FF0000BE11704EB517150
:102E9000C910A4EBC10131B92046E11704EB51710F
:102EA000C1F3C70506E02046E11704EB5171C910D4
:102EB000491CCDB23D4615E07919C8B2314600F043
:102EC0006BF8B1460AE059460BF1010B1AF8010004
:102ED00000F03EF909F1010000F0FF09C145F2DB05
:102EE000681CC5B2A542E7DBBDE8F09F10B5052020
:102EF00003F02AF9AE2000F015F9D52000F012F900
:102F0000802000F00FF9A82000F00CF93F2000F01D
:102F100009F9D32000F006F9002000F003F9402061
:102F200000F000F9A12000F0FDF8C82000F0FAF848
:102F3000DA2000F0F7F8122000F0F4F8812000F019
:102F4000F1F8CF2000F0EEF8D92000F0EBF8F120F6
:102F500000F0E8F8DB2000F0E5F8302000F0E2F8BF
:102F6000A42000F0DFF8A62000F0DCF88D2000F0AF
:102F7000D9F8142000F0D6F8AF2000F0D3F8FFF70E
:102F800065FF10BD10B50246012000E050430B1E46
:102F9000A1F10101FAD110BD70B505460C4645F00E
:102FA000B00000F0BFF8102141EA141000F0BAF8A8
:102FB00004F00F0000F0B6F870BD00002DE9F041FC
:102FC00005460E461746721ED206110E6A1E52069E
:102FD000100EFFF7E1FF002409E0A7F12001134ADA
:102FE00002EB0111085D00F0B3F8601CC4B2082CBC
:102FF000F3DB721ED206110E6A1E012303EB42029E
:10300000D0B2FFF7C9FF00240BE0A7F12001074A67
:1030100002EB011204F10801505C00F099F8601C09
:10302000C4B2082CF1DBBDE8F08100001C9E000852
:103030002DE9F041064688461746002414E0311970
:10304000C8B24146FFF7A8FF002509E0084901EB97
:10305000471105EB0412885C00F07AF8681CC5B2D1
:10306000102DF3DB601CC4B2022CE8DBBDE8F0815C
:10307000DC9C00082DE9F0410646884617460024EE
:1030800014E03119C8B24146FFF786FF002509E078
:10309000084901EBC70105EBC402885C00F058F851
:1030A000681CC5B2082DF3DB601CC4B2012CE8DB40
:1030B000BDE8F081D49C00082DE9F04780460E461B
:1030C00017461D46002415E0281B411E0A20FFF765
:1030D00059FFB7FBF0F00A21B0FBF1F201FB12003F
:1030E00000F130093019C1B24A464046FFF766FF89
:1030F000601CC4B2AC42E7DBBDE8F0872DE9F041CB
:1031000007460E461546002407E02A5D3019C1B275
:103110003846FFF753FF601CC4B2285D0028F4D185
:10312000BDE8F08110B50446FFF722FB7820FFF7D9
:10313000DFFAFFF75DFB0020FFF7DAFAFFF758FB35
:103140002046FFF7D5FAFFF753FBFFF72DFB10BD25
:1031500010B50446FFF70CFB7820FFF7C9FAFFF71C
:1031600047FB4020FFF7C4FAFFF742FB2046FFF77A
:10317000BFFAFFF73DFBFFF717FB10BD01490862DF
:103180007047000000000E4229B1064A126802434F
:10319000044B1A6004E0034A12688243014B1A6030
:1031A000704700003038024029B1064A12680243D5
:1031B000044B1A6004E0034A12688243014B1A6010
:1031C000704700004038024029B1064A12680243A5
:1031D000044B1A6004E0034A12688243014B1A60F0
:1031E0007047000044380240F0B50021002200245E
:1031F000022500260223324F3F6807F00C0121B15F
:10320000042905D0082937D105E02E4F076036E0A4
:103210002D4F076033E02A4F3F1F3F68C7F38056AA
:10322000274F3F1F3F6807F03F036EB1264FB7FBA4
:10323000F3F7DFF88CC0ACF1040CDCF800C0CCF381
:10324000881C07FB0CF40CE01E4FB7FBF3F7DFF80C
:1032500070C0ACF1040CDCF800C0CCF3881C07FB98
:103260000CF4174F3F1F3F68C7F301477F1C7D00D9
:10327000B4FBF5F7076002E0124F076000BF00BF24
:103280000F4F3F6807F0F0010909104F7A5C07689B
:10329000D74047600A4F3F6807F4E051890A0B4F57
:1032A0007A5C4768D7408760054F3F6807F4604104
:1032B000490B064F7A5C4768D740C760F0BD0000F5
:1032C000083802400024F40000127A0000000020B8
:1032D00010B501460022002300204A11012A02D124
:1032E0000A4C236808E0022A03D1084C7034236892
:1032F00002E0064C7434236801F01F02012494405C
:103300001C400CB1012000E0002010BD003802403C
:103310000021094A11701170012802D0042808D137
:1033200003E00121044A117004E00521024A1170F2
:1033300000E000BF00BF70477038024001490860DC
:10334000704700003C0E4742002100F44072B2F585
:10335000407F08D1094A116821F4F811084A024057
:103360001143064A1160054A68321268C0F30B0324
:103370001A43024B68331A60704700000838024055
:10338000FFFCFF0F014600BF080900EB8000420070
:1033900001F00F001044C0B270470146002204E063
:1033A000501CC2B2A1F10A00C1B20A29F8DA100712
:1033B00041EA106070470000002101098AB242F022
:1033C0008002044B1B6803F0800363EA0202014B96
:1033D0001A6070470C2800402DE9F04387B004467E
:1033E0000D4616461F46DDE90E8901210807FFF745
:1033F000DBFE0120FFF7C2FE0120FFF789FF00BFBF
:103400004120FFF765FF0028FAD04FF48070FFF7E6
:103410009BFF0120FFF792FF00F084FA7F200590C8
:10342000FF2006900020049004A800F05BF90A2019
:1034300097FBF0F100FB117197FBF0F001EB00102E
:103440003D49C8700A2098FBF0F100FB118198FB00
:10345000F0F001EB0010384948700A2099FBF0F1B8
:1034600000FB119199FBF0F001EB001032498870DC
:10347000012000F069F900203049C8700A2094FB4F
:10348000F0F100FB114194FBF0F001EB00102B492F
:1034900008700A2095FBF0F100FB115195FBF0F04C
:1034A00001EB0010254948700A2096FBF0F100FB63
:1034B000116196FBF0F001EB0010204988700120AB
:1034C00000F0A6F903208DF80C0001208DF80D0006
:1034D00000208DF80E0001208DF80F0003A8FFF7E3
:1034E00079FC4FF48000FEF753FB4FF4800001900D
:1034F00000208DF8080008208DF8090001208DF8C3
:103500000A0001A8FEF74AFB4FF48040FFF754FF82
:10351000002000F04FFA042000F034FA002000F000
:10352000DFF90121880300F0ABF8012000F042FA36
:1035300007B0BDE8F08300003C0000204000002000
:1035400008B50022009200200021104A126802F003
:103550004002CAB9421E0D4B1A6000BF0B4A1268E6
:1035600002F04001009A521C0092009AB2F5803F8E
:1035700001D00029F2D0054A126802F040020AB1D7
:10358000012002E0002000E0012008BD0C280040DE
:103590000348006820F0800001490860704700007F
:1035A0000C28004070B506460C4600250E48006801
:1035B0000E4900EA0105280CE070C5F30420607094
:1035C00005F03F00A070C5F3423020705EB9E0788E
:1035D000FFF7D8FEE0706078FFF7D4FE6070A07847
:1035E000FFF7D0FEA07070BD042800403FFFFF0031
:1035F00030B501460020002200230C4C246804F062
:1036000004020A4C383C24680C4002EAD13544EAF2
:103610000503064C343C246804EA11121BB194B231
:103620000CB1012000E0002030BD00004028004027
:1036300070B506460C4600250F4800680F4900EAA1
:103640000105C5F305402070C5F30620607005F044
:103650007F00A07005F48000000CE0705EB9207857
:10366000FFF790FE20706078FFF78CFE6070A07806
:10367000FFF788FEA07070BD002800407F7F7F00AC
:10368000CA22174B1A6053221A6091B1144A1C3A8D
:10369000126820F004031A43114B1C3B1A60104AB5
:1036A0001C32126800F004031A430D4B1C331A60DD
:1036B00011E00B4A1C3A126820F004039A43084BAD
:1036C0001C3B1A60064A1C32126800F004039A433D
:1036D000034B1C331A60FF22014B1A607047000035
:1036E0002428004030B504460025CA20154908604A
:1036F00053200860FFF724FF00B91DE011481C3873
:10370000006820F040000F491C3908600846006836
:10371000216808430B491C3908600A491439A0681C
:10372000086008460068A18840EA0140054914394C
:103730000860FFF72DFF0125FF2002490860284699
:1037400030BD0000242800402DE9F04105460C461C
:10375000002600274DB9607800F01000102804D131
:10376000607820F010000A30607005B908E06078D9
:10377000FFF708FE0646A078FFF704FE064600BFE6
:1037800055B1E0780004617840EA0120A17808434F
:10379000217840EA413611E0E078FFF7FEFD4FEA7C
:1037A00000486078FFF7F9FD48EA0028A078FFF7A5
:1037B000F4FD48EA0008207848EA4036CA20124959
:1037C000086053200860FFF7BBFE08B9002714E02B
:1037D0000E4830400C4920390860FFF7D9FE0A48EE
:1037E0001C38006800F0200030B900F09BF808B9E0
:1037F000002702E0012700E00127FF2002490860BE
:103800003846BDE8F0810000242800403FFFFF005B
:103810002DE9F04105460C46002600274DB92E48FB
:10382000006800F0400000B102E00020E07000BF3E
:103830000DE02948006800F0400020B12078FFF733
:10384000A1FD064602E00020E07000BF00BF55B1B8
:1038500020780004617840EA0120A1780843E178EB
:1038600040EA014611E02078FFF797FD4FEA004853
:103870006078FFF792FD48EA0028A078FFF78DFDF9
:1038800048EA0008E07848EA0046CA2012491C319C
:10389000086053200860FFF753FE08B9002713E0C3
:1038A0000E4830400C4908390860FFF771FE0A489D
:1038B000006800F0200030B900F034F808B90027A3
:1038C00002E0012700E00127FF2003491C310860C6
:1038D0003846BDE8F0810000082800407F7F7F0067
:1038E000CA21054A1160532111600349103908604B
:1038F000FF211160704700002428004010B54FF4EC
:103900008040FFF775FE48B101200549086080033B
:10391000FFF752FD4FF48000FEF73AF910BD0000AA
:103920004400002008B50022009200200021CA2295
:10393000134B1A6053221A60114A183A126822F087
:10394000A0020F4B183B1A6000BF0D4A183A1268CC
:1039500002F02001009A521C0092009AB2F5003F3A
:1039600001D00029F1D0064A183A126802F020026C
:103970000AB1012000E00020FF22014B1A6008BDBF
:1039800024280040CA210A4A1160532111600849C5
:103990001C39096821F00701054A1C3A11601146DB
:1039A000096801431160FF21014A1160704700005E
:1039B0002428004018B5014600230093002200206F
:1039C000CA23194C23605323236049B1164B1C3B77
:1039D0001B6843F48063144C1C3C236001201FE0EF
:1039E000114B1C3B1B6823F480630F4C1C3C236071
:1039F00000BF0D4B183B1B6803F00402009B5B1CCF
:103A00000093009BB3F5803F01D0002AF1D0064B14
:103A1000183B1B6803F004030BB9002000E00120F1
:103A2000FF23014C236018BD242800400CB5002062
:103A3000019000903448006840F4803032490860BA
:103A400000BF3148006800F4003000900198401C2D
:103A50000190009818B90198B0F5A04FF1D12A480B
:103A6000006800F4003010B10120009001E0002057
:103A700000900098012846D123484030006840F06B
:103A800080502149403108602048006840F440409F
:103A90001E4908601C48083000681B49083108604E
:103AA0000846006840F4004008600846006840F49A
:103AB000A05008601648091F0860081F006840F001
:103AC0008070091F086000BF0F48006800F0007098
:103AD0000028F9D040F205700E4908600A48083005
:103AE000006820F0030008490831086008460068B3
:103AF00040F00200086000BF03480830006800F092
:103B00000C000828F8D10CBD0038024000700040BD
:103B100008544007003C024000B58DB00121480226
:103B2000FFF752FB01210220FFF72EFB01200B9033
:103B300003208DF8300000208DF833000BA91348C6
:103B4000FEF754FA00200790089009900A9007A801
:103B5000FDF75EFE002001908DF808008DF8090049
:103B60000390059001208DF8180001A90848FDF781
:103B700075FE0023012208210548FDF799FE012169
:103B80000348FDF73AFE0DB000BD000000040240FE
:103B90000021014010B500BF502080F31188BFF311
:103BA0004F8FBFF36F8F00BF05F0BEFE18B14FF00F
:103BB00080500449086000BF002080F3118800BFD6
:103BC00010BD000004ED00E010B51548006840F499
:103BD0007000134908601348006840F00100114963
:103BE000086000200F49083108600E4800680E493F
:103BF00008400C4908600D48091D0860081F00684E
:103C000020F48020091F0860002006490C3108605C
:103C1000FFF70CFF4FF0006001498039086010BDCC
:103C200088ED00E000380240FFFFF6FE103000246F
:103C300021B1028842F08002028004E002884FF63F
:103C40007F731A400280704721B1028842F001025E
:103C5000028004E002884FF6FE731A40028070472B
:103C600031B1B0F8442042F40042A0F8442005E00D
:103C7000B0F84420C2F30E02A0F8442070470000C0
:103C800070B5002400220023058C4FF6FE763540E7
:103C90000584028C8388048B4FF68F752C40B51EEB
:103CA0002C400D882C43751E2A408D892A434D884F
:103CB0002A43104DA84202D00F4DA84213D14FF60F
:103CC000F7752A40CD892A434FF6FB752A408D8827
:103CD0002A434FF6FF652B404FF6FF552B400D8AC8
:103CE0002B434D8A2B43838004838D684563028474
:103CF00070BD000000000140000401400022028865
:103D0000184B98420ED0184B98420BD0B0F1804F10
:103D100008D0164B984205D0154B984202D0154B4F
:103D2000984204D14FF68F731A404B881A43124BB6
:103D3000984207D0114B984204D04FF6FF431A40E7
:103D40000B891A4302804B68C3620B880385054BBD
:103D5000984202D0044B984201D18B7A038601230A
:103D600083827047000001400004014000040040CD
:103D700000080040000C004000100040001400400B
:103D800010B588B0044601210846FFF7FDF901216E
:103D90001020FFF719FA072209212348FEF76EF9D0
:103DA00007220A212048FEF769F902208DF8080051
:103DB00003208DF8090000208DF80A0001208DF8FD
:103DC0000B004FF4C060019001A91748FEF70EF9EF
:103DD00004940020ADF81400ADF81600ADF81800FA
:103DE000ADF81C000C20ADF81A0004A90F4800F033
:103DF000BFFA25208DF80C0000208DF80D008DF8FD
:103E00000E0001208DF80F0003A8FEF7E3FF01224A
:103E100040F22551054800F086FA0121034800F0E0
:103E20003FFA08B010BD0000000002400010014041
:103E300010B5002440F22551064800F04AFA012846
:103E400007D1044800F0FEFAC4B22146014800F050
:103E5000FEFA10BD0010014010B588B004460121E3
:103E60000846FFF791F901214804FFF79DF9072261
:103E700002212248FEF702F9072203211F48FEF71C
:103E8000FDF802208DF8080003208DF809000020BD
:103E90008DF80A0001208DF80B000C20019001A97B
:103EA0001648FEF7A3F804940020ADF81400ADF80E
:103EB0001600ADF81800ADF81C000C20ADF81A0083
:103EC00004A90F4800F054FA26208DF80C000020B9
:103ED0008DF80D008DF80E0001208DF80F0003A85D
:103EE000FEF778FF012240F22551054800F01BFA49
:103EF0000121034800F0D4F908B010BD00000240D1
:103F00000044004010B5AAE058A15A48FCF7E4F973
:103F100080B1FEF739FA0020574908704FF48071DC
:103F20005448FCF7CEF900205449086054A000F032
:103F30005FFB94E053A14F48FCF7CEF980B14FF4FA
:103F400000715248FEF7C6F800204B4908704FF444
:103F500080714848FCF7B5F90020484908607EE0C8
:103F60004BA14448FCF7B8F968B1FDF793FF002076
:103F7000414908704FF480713E48FCF7A2F90020D7
:103F80003E4908606BE044A13A48FCF7A5F9D8B176
:103F9000FEF7D0FC052002F0D7F8002405E0FEF77C
:103FA000E1FC022002F0D0F8641CB4F5967FF6DB49
:103FB0000020314908704FF480712E48FCF781F9D8
:103FC00000202E4908604AE036A12A48FCF784F90F
:103FD00080B14FF400712D48FEF77EF8002026498D
:103FE00008704FF480712348FCF76BF900202349D7
:103FF000086034E02DA11F48FCF76EF968B1FDF7A9
:1040000097FF00201C4908704FF480711948FCF795
:1040100058F900201949086021E026A11548FCF74D
:104020005BF9D8B1FEF786FC052002F08DF800247C
:1040300005E0FEF7F7FC022002F086F8641CB4F5F8
:10404000967FF6DB00200C4908704FF48071094818
:10405000FCF737F900200949086000E000BF064876
:10406000007801283FF450AF10BD0000574541547F
:10407000484552006A0700204C00002048000020FC
:104080006F6B00004C4544204F4E0000001402406E
:1040900046414E204F4E00004355525441494E2058
:1040A0004F4E00004C4544204F46460046414E20AE
:1040B0004F4646004355525441494E204F46460014
:1040C00070B5002540F22551154800F002F901288D
:1040D00024D1134800F0B6F9C5B212480068FF2891
:1040E0001CDC0F4800F0AEF9C1B20E480468601C39
:1040F0000C4A10600C48015510460068401E0A4AE0
:10410000115C0A4800F0A3F906480068401E064901
:10411000085C302802D101200549087070BD0000FC
:1041200000440040480000206A07002000100140C1
:104130004C00002010B504460BE014F8011B0748A2
:1041400000F085F900BF8021044800F0B5F8002890
:10415000F9D020780028F0D110BD000000440040C4
:1041600010B588B0044601210220FFF70DF80121A7
:104170008804FFF719F807220A212348FDF77EFF7C
:1041800007220B212048FDF779FF02208DF8080057
:1041900003208DF8090000208DF80A0001208DF819
:1041A0000B004FF44060019001A91748FDF71EFF76
:1041B00004940020ADF81400ADF81600ADF8180016
:1041C000ADF81C000C20ADF81A0004A90F4800F04F
:1041D000CFF827208DF80C0000208DF80D008DF809
:1041E0000E0001208DF80F0003A8FEF7F3FD012259
:1041F00040F22551054800F096F80121034800F0EF
:104200004FF808B010BD0000000402400048004014
:1042100010B540F22551114800F05BF8B8B10F48D5
:1042200000F010F90E4908700A780E490868411C20
:104230000C4B19600C490A5418460068B0F5007F11
:1042400005D300201946086001200849087040F293
:104250002551024800F015F810BD0000004800404C
:1042600058000020540000206A0B00205900002054
:1042700001F40072B2F5007F00D100BFCA43028092
:10428000704710B50022002340F66A14A14200D105
:1042900000BF0A1201249440A3B2DC43048010BD85
:1042A00021B1828942F40052828104E082894DF674
:1042B000FF731A408281704702460020B1F5007FEB
:1042C00000D100BF13880B400BB1012000E000209B
:1042D000704770B50246002400230025002040F6F8
:1042E0006A16B14200D100BFC1F3421501F01F03AD
:1042F000012606FA03F3012D02D19689334006E028
:10430000022D02D1168A334001E0968A33400C1206
:10431000012606FA04F41688344013B10CB10120CA
:1043200000E0002070BDF0B5034600240026002503
:10433000002040F66A17B94200D100BF1846C1F309
:10434000421401F01F06012707FA06F5012C01D1DE
:104350000C3004E0022C01D1103000E014301AB10E
:1043600007682F43076002E00768AF430760F0BDAE
:104370002DE9FF4705460E460024A14600BFA04692
:10438000B08900B100BF2C8A24F44054F088044363
:104390002C82AC8941F20C608443B0883189084397
:1043A000718908430443AC81AC8A24F44074B08919
:1043B0000443AC826846FEF717FF2048854202D0CE
:1043C0001F48854202D1DDF80C9001E0DDF808902D
:1043D000A88900F4004040B109EBC90000EB0910C6
:1043E00031684900B0FBF1F707E009EBC90000EBC9
:1043F000091031688900B0FBF1F76420B7FBF0F0D9
:1044000004012009642101FB1078A88900F4004010
:1044100040B1322000EBC800B0FBF1F000F0070023
:10442000044308E0322000EB08106421B0FBF1F0F7
:1044300000F00F0004432C81BDE8FF87001001400D
:104440000014014001468888C0F308007047C1F39A
:1044500008028280704700BFFEE770B504460D4633
:1044600029462046FFF7F3FF00BF80212046FFF7D3
:1044700023FF0028F9D070BD2DE9F04107460C4616
:10448000154626460FE031783846FFF7E0FF761CE8
:1044900000BF80213846FFF70FFF0028F9D08021A8
:1044A0003846FFF7E5FE281EA5F10105EBD1BDE872
:1044B000F08170B506460C46002500BF615D3046B0
:1044C000FFF7CBFF6D1C605D0028F7D100BF4021D6
:1044D0003046FFF7F1FE0028F9D040213046FFF7C3
:1044E000C7FE70BD1CB501211020FEF74DFE4FF434
:1044F0008070009001208DF8040000208DF80600E7
:1045000002208DF8050069460448FDF76FFD4FF461
:1045100080710248FDF7E0FD1CBD00000010024064
:104520002DE9F041C0B04FF480716846FBF7C9FE39
:10453000204801F0DEFC0546284601F04BFD04460C
:1045400021461DA000F054F81CA1284601F0BAFC39
:1045500006460021304601F0A1FC074619A1384665
:1045600001F0B0FC804618A1404601F0ABFC0469A4
:10457000214617A000F03CF817A1404601F0A2FC2C
:104580000469214612A000F033F813A1404601F05F
:1045900099FC0469224613A1684600F039F869467F
:1045A00012A000F025F86846FFF7C4FD40B0BDE852
:1045B000F08100006A0B002025730A007265737594
:1045C0006C7473006E6F770074657874000000007F
:1045D00025730D0A0000000074656D7065726174CA
:1045E000757265003F25735D0000000025730000B3
:1045F0000FB4054B10B503A9044A029801F068F8FE
:1046000010BC5DF814FB00005D6600085C00002033
:104610000FB4084B10B504A902AA039801F058F88A
:10462000044602A9002001F0EAFB204610BC5DF818
:1046300014FB0000FF5D000803B4019841000098DE
:1046400050EAC12018BF04204A0D18BF40F00100F5
:1046500040F2FF72B2EB515F08BF40F00200012848
:1046600008BF052002B07047004870473805002099
:1046700030B528B1144C031F002021680A4605E01C
:10468000084630BD9A4203D810465268002AF9D134
:10469000002800D041680BD00468A3EB0005A542B8
:1046A00004D11B681C440346046002E0436000E040
:1046B00023603AB11C68D51AA54203D115682C4471
:1046C0001C6052685A6030BD3005002000000000B8
:1046D0002DE9F04D2DED040B2DED0E8B96B0DDE99F
:1046E0002550279CDDF890A025F0004624F00048D6
:1046F000BAF1000F14BF0121002101EB4502FC4972
:1047000053184A1093422AD3002814BF01230023D0
:1047100003EB44030B44F7498B4220D358EA0001D2
:104720009FEDF59B76D0DFF8D8B35D4503D1BAF1A4
:10473000000F05D188E0BAF1000F08BF002100D0BA
:10474000012101EB450111F5001F08D8002814BF15
:104750000121002101EB440111F5001F0BD99DED52
:10476000261B9DED240B16B0BDEC0E8B04B0BDE8EE
:10477000F04D00F091BE0027002DBCBFE1498845F7
:1047800021DAE1498845A8BF02271CDAC3451ADCB3
:10479000DE4901EB2851142908DDC1F1340220FA69
:1047A00002F101FA02F282420DD108E058B9C1F1DA
:1047B000140228FA02F101FA02F2424503D101F093
:1047C0000101C1F1020756EA0A0124D1002C22DAC4
:1047D000002D18BF022F01D0012F0AD0022000F0B7
:1047E000A7FE16B0BDEC0E8B04B0BDE8F04D00F096
:1047F0003BBE022000F09CFE00F036FE51EC100B98
:1048000081F0004141EC100B16B0BDEC0E8B04B0F2
:10481000BDE8F08D18E09FEDBEAB9FEDBF8B00288B
:1048200071D1B848804522D105F1804010F5801043
:1048300008BFBAF1000F07D0B3450ADC002CA8BFAF
:104840009DED260BE0DA0DE0B0EE490AF0EE690AC4
:10485000DAE7002C06DA9DED260B51EC100B81F007
:1048600000416FE0AE48784490ED000BCCE7D845AE
:104870004DD1002C48DA2EB186423AD1BAF1000F60
:1048800042D126E0BAF1000F13D0022000F050FE12
:1048900000F01EFE8DED020B9DED240B8DED000B47
:1048A00010EE900A039961F31E0003909DED020B38
:1048B000AAE78DED02AB9DED240B1AEE901A10EED7
:1048C000900A8DED000B61F31E0003909DED020B2D
:1048D0009AE78DED028B9DED240B18EE901A10EEE9
:1048E000900A8DED000B61F31E0003909DED020B0D
:1048F0008AE709DA9DED240B51EC190B53EC102BD0
:10490000FBF76CFE1EE020E09DED240B7CE7864269
:104910001BDAB4F1804F0DD0A4F10050B0F1FF507C
:1049200013D1002D11DB9DED240B51EC100B03F086
:1049300051FF07E09DED240B53EC102B51EC100BB5
:1049400000F0C2BC41EC100B5EE79DED240B51EC76
:10495000100B01F077FEBAF1000FCDE90E0142D144
:104960009FED710B46B3A6F1E040B0F17F600CD033
:104970005E4538D1002D00DAA7B3022F0CBF01200D
:104980004FF0FF30FBF799FEDCE7002D01DD002C36
:104990000DDA002D01DD002C1FDB002D16DA002CB6
:1049A00014DB012F08BF9FED620B3FF42DAFB0EE7B
:1049B0004A0AF0EE6A0A27E7022F18BF002D0CD032
:1049C000012F0AD1002DFFF61FAF06E0002DB8BF62
:1049D000002C08DA012F3FF417AFB0EE480AF0EED2
:1049E000680A11E71BE0012000EBE57050EA0701BF
:1049F00015D0791EB0EE498AF0EE698A084308BFE7
:104A00009FED4D8B4E480025804570DD4D494E4849
:104A1000884514DDB0420DDB002C19DB2FE00120AE
:104A200000F086FD16B0BDEC0E8B04B0BDE8F04D75
:104A300000F03EBDB34502DC002C09DC1FE08642DD
:104A400002DA002C1BDA03E05E452BDD002C16DDBC
:104A5000022000F06DFD00F03BFD8DED020B53ECEC
:104A60001A2B51EC180BFBF747FDCDE90001039918
:104A7000019861F31E0003909DED020BC4E6022035
:104A800000F056FD00F034FD10EE901A18EE900A7A
:104A90008DED020B8DED008B61F31E0003909DEDFB
:104AA000020BB1E69DED0E0B53EC192B51EC100BE4
:104AB000FBF71CFD9FED260BCDE9080153EC102BF5
:104AC0009DED080B51EC100BFBF716FD9FED221B23
:104AD00053EC112BFBF70DFD9DED081B53EC112B37
:104AE000FBF70AFD9FED1E1B53EC112B3CE08CE005
:104AF000FFFF1F00FFFF0F00000000000000F03F5D
:104B00000000F03F0000F07F0000404301FCFFFF89
:104B1000000000000000F07F000000000000000026
:104B20002E5C00000000000000000000000000807B
:104B3000000000000000F0FF000000000000F0BFD7
:104B40000000E0410000F043FFFFEF3F00000000E5
:104B5000000000000000D03F555555555555D53F34
:104B6000000000000000E03FFBF7C3FC9DED080BD8
:104B700041EC1A0B53EC102B51EC100BFBF7BCFC67
:104B800053EC1A2BFBF7B8FC41EC1A0B9FEDFE0B14
:104B900053EC102B9DED080B51EC100BFBF7ACFC0C
:104BA00041EC1B0B9FEDFA0B51EC1A0B53EC102B45
:104BB000FBF7A2FC41EC1A0B9FEDF70B53EC102B0B
:104BC0009DED080B51EC100BFBF796FC53EC1A2BE8
:104BD000FBF78CFC41EC1A0B51EC1B0B53EC1A2B22
:104BE000FBF7E3FB0690CDE906519DED060B53EC78
:104BF0001B2B51EC100BFBF779FC53EC1A2BFBF73A
:104C000078FC41EC100B00F0A1B90020B6F5801F34
:104C10000EDA9FEDE30B53EC102B9DED0E0B51ECD8
:104C2000100BFBF769FCCDE90E016FF034000E4666
:104C300000EB2650A0F2FF37C6F31300DA4940F02C
:104C40007F6646F040568842D8BF002408DDD74929
:104C50008142C8BF012403DC0024A6F580167F1C16
:104C6000D348784400EBC4000F9690ED00CB9DED47
:104C70000E0B53EC1C2B51EC100BFBF737FC9DED8E
:104C80000E0B41EC1B0B53EC1C2B51EC100BFBF7E8
:104C90008CFB41EC100B51EC190B53EC102BFBF778
:104CA0009DFC41EC1D0B51EC1B0B53EC1D2BFBF73A
:104CB00023FC41EC1A0BBF488DED10AB78441095E6
:104CC00090ED000B4FF0005040EA660000EB84408E
:104CD0008DED080B00F5002009909DED080B53ECBD
:104CE0001C2B51EC100BFBF701FC9DED0E1B53EC44
:104CF000112BFBF7FEFB41EC100B53EC102B9DED41
:104D0000100B51EC100BFBF7F7FB9DED080B41EC82
:104D10001C0B53EC102B9DED100B51EC100BFBF703
:104D2000EBFB53EC1B2BFBF7E4FB53EC1C2BFBF7CF
:104D3000DDFB53EC1D2BFBF7DFFB41EC1C0B53ECB5
:104D40001A2B51EC1A0BFBF7D7FB41EC1B0B9A48C3
:104D50000621B0EE4B0AF0EE6B0A784400F0E0FA60
:104D6000B0EE401AF0EE601AB0EE41DAF0EE61DA21
:104D700053EC1B2B51EC1B0BFBF7BEFB53EC1D2B19
:104D8000FBF7BAFB9DED100B41EC1B0B53EC1A2B00
:104D900051EC100BFBF709FB53EC1C2BFBF7ACFBA6
:104DA00053EC1B2BFBF701FB9DED100B41EC1B0B98
:104DB00053EC102B51EC100BFBF79EFB41EC1D0B41
:104DC0009FED7FEB53EC1E2BFBF7EFFA53EC1B2B05
:104DD000FBF7EBFA0890CDE908519DED080B53EC79
:104DE0001E2B51EC100BFBF781FB53EC1D2BFBF73B
:104DF0007DFB53EC1B2BFBF77CFB9DED080B41EC83
:104E00001D0B53EC102B9DED100B51EC100BFBF711
:104E100073FB41EC1B0B53EC1A2B51EC1D0BFBF7F6
:104E20006BFB9DED080B41EC1A0B53EC102B51EC76
:104E30001C0BFBF761FB53EC1A2BFBF7B6FA41ECAA
:104E40001A0B51EC1B0B53EC1A2BFBF7AEFA0C9020
:104E5000CDE90C519DED0C0B53EC1B2B51EC100BC1
:104E6000FBF744FB53EC1A2BFBF743FB41EC1B0B0A
:104E70009FED550B53EC102B9DED0C0B51EC100BD3
:104E8000FBF73AFB41EC1A0B9FED510B51EC1B0B5E
:104E900053EC102BFBF730FB41EC1B0B9FED4E0B43
:104EA00053EC102B9DED0C0B51EC100BFBF724FB7E
:104EB00053EC1B2BFBF779FA41EC100B4848784474
:104EC00000EBC40090ED001B51EC100B53EC112BC8
:104ED000FBF76BFA41EC1B0B3846FBF7EEFBCDE919
:104EE000080153EC1B2B51EC1A0BFBF75EFA41EC5B
:104EF000100B3C48784400EBC40090ED00CB51EC23
:104F0000100B53EC1C2BFBF750FA9DED081B53ECD8
:104F1000112BFBF74AFA0690CDE906519DED080BDF
:104F200053EC102B9DED060B51EC100BFBF7DEFA4A
:104F300053EC1C2BFBF7DAFA53EC1A2BFBF7D6FADF
:104F400053EC1B2BFBF7D5FA41EC100B9DED261B08
:104F500053EC102B8DED001B00959DED260B51ECB5
:104F6000100BFBF7C9FA9DED000B41EC1A0B53EC4B
:104F7000102B9DED260B51EC100BFBF7B7FA9DEDB6
:104F8000061B53EC112B2FE0000000604715F73F84
:104F9000FE822B654715F73F44DF5DF80BAE543EAC
:104FA00000000000000040438E9803007AB60B001A
:104FB000AA570000D8570000E25600000000000089
:104FC0000000000000000840000000E009C7EE3FBC
:104FD000FD033ADC09C7EE3FF5015B14E02F3EBE4E
:104FE0006E55000028550000FBF786FA53EC1A2B8B
:104FF000FBF7DBF99DED060B41EC1A0B53EC102B84
:105000009DED000B51EC100BFBF776FACDE90C018E
:105010009DED0C0B51EC1A0B53EC102BFBF7C5F963
:10502000CDE902010C46AA498C422FDB611A0843E4
:1050300018D19DED0C0B53EC102B9DED020B51EC98
:10504000100BFBF753FA41EC1B0B9FEDA30B51EC3C
:105050001A0B53EC102BFBF7A8F953EC1B2BFBF7A7
:1050600095FB2DD2022000F063FA00F031FA10EE29
:10507000901A18EE900A8DED020B8DED008B61F306
:105080001E0003909DED020BFFF7BEBB944A24F077
:105090000041914214D39349214408437FF4EFAC7B
:1050A0009DED0C0B53EC102B9DED020B51EC100BF6
:1050B000FBF71CFA53EC1A2BFBF768FB7FF6DFAC0F
:1050C00024F000408849894A002601EB20518242A1
:1050D0002BDA481C4FF4801121FA00F02044844A56
:1050E000C0F30A517A44A1F2FF3192ED000B814ADC
:1050F0008DED080BCA4020EA0202C0F3130040F411
:105100008010C1F1140120FA01F60992002CB8BFF9
:1051100076429DED080B53EC102B9DED0C0B51ECE2
:10512000100BFBF7E3F9CDE90C019DED0C0B51ECF5
:105130001A0B53EC102BFBF738F99FED6F0B08900F
:10514000CDE9085153EC102B9DED080B51EC100BE1
:10515000FBF7D2F941EC1B0B9FED690B53EC102BC5
:105160009DED080B51EC100BFBF7C6F99DED0C0BF8
:1051700041EC1C0B53EC102B9DED080B51EC100B6C
:10518000FBF7B4F953EC1A2BFBF7B3F99FED5E1B59
:1051900053EC112BFBF7B0F953EC1C2BFBF705F983
:1051A00041EC1A0B51EC1B0B53EC1A2BFBF7FDF8DF
:1051B000CDE902019DED020B53EC1B2B51EC100BC2
:1051C000FBF794F953EC1A2BFBF793F99DED020BC7
:1051D00041EC1A0B53EC102B51EC100BFBF78CF934
:1051E000CDE908014A489DED080B0521784400F0FF
:1051F00097F89DED081B51EC100B53EC112BFBF7AE
:105200007BF99DED021B53EC112BFBF772F9CDE9F5
:1052100006019DED020B53EC1A2B51EC100BFBF722
:105220006BF953EC1A2BFBF7C0F89FED3B0B41ECED
:105230001A0B53EC102B9DED060B51EC100BFBF7EA
:1052400055F99DED060B41EC1B0B53EC102B9DED1E
:10525000020B51EC100BFBF74FF953EC1B2BFBF738
:10526000BDF953EC1A2BFBF741F99DED021B53ECF2
:10527000112BFBF73BF953EC192BFBF73AF9CDE96E
:10528000020101EB065001150029C8BF039015DC8F
:105290009DED020B324651EC100BFBF7E3FFFFF7DD
:1052A000CBF9042808BF00F023F932469DED020B2C
:1052B00051EC100BFBF7D6FFCDE902019DED020B7F
:1052C00051EC180B53EC102BFBF716F9FFF73ABB18
:1052D0000000904000000000FE822B654715973CBF
:1052E00000CC904000346F3F01FCFFFF0000E03F26
:1052F000B0530000FFFF0F0000000000432EE63F08
:10530000396CA80C615C20BEEF39FAFE422EE63FF4
:10531000805200000000000000000000000000407B
:1053200070B504462DED028B4D1E00EBC500B0EEAE
:10533000408AF0EE608A90ED000B35F0060017D041
:1053400053EC182B51EC100BFBF7D6F841EC100B7B
:105350006D1E04EBC50090ED001B51EC100B53ECDF
:10536000112BFBF722F841EC100B35F00600E7D1CA
:10537000022D36D0042D1CD0062D1CBFBDEC028B97
:1053800070BD53EC182B51EC100BFBF7B5F894EDF6
:105390000A1B53EC112BFBF708F853EC182BFBF707
:1053A000ABF894ED081B53EC112BFAF7FEFF41EC20
:1053B000100B53EC182B51EC100BFBF79DF894EDF0
:1053C000061B53EC112BFAF7F0FF53EC182BFBF7ED
:1053D00093F894ED040B53EC102BFAF7E6FF41EC35
:1053E000100B53EC182B51EC100BFBF785F894EDD8
:1053F000021B53EC112BFAF7D8FF53EC182BFBF7D9
:105400007BF894ED001B53EC112BFAF7CEFFBDECAB
:10541000028B41EC100B70BD2DE9F04782460F4C1A
:1054200010480D4E0E4F001B4FF0000820F00705EE
:105430004FF0010900221146504601F059F90028A9
:1054400002D1306810B10020BDE8F0873C60C4E9AB
:105450000058C6F80090EDE7340500203C3A0120E2
:1054600030050020384201209FED070B10B553ECAA
:10547000102B9FED070B51EC100BFBF7AFF841EC35
:10548000100B10BD00000000000000000000000034
:10549000000000000000F03F10B553EC112B51EC60
:1054A000100BFAF782FF41EC100B10BD000000005A
:1054B0009FED050B10B553EC102B51EC100BFBF7C7
:1054C0008DF841EC100B10BD000000000000000042
:1054D0009FED050B10B553EC102B51EC100BFBF7A7
:1054E0000BF841EC100B10BD000000000000007034
:1054F0009FED050B10B553EC102B51EC100BFAF788
:10550000FBFF41EC100B10BD00000000000000107C
:1055100002E008C8121F08C1002AFAD1704770477C
:10552000002001E001C1121F002AFBD170470000DA
:105530000149086070470000380500202DE9FF5F31
:1055400082B00021DDE90430020DDDF840B00343F4
:1055500018D044F61050A2F2FF32424315141198AD
:1055600001281FD0A5EB0B00401C5FEA000A4FF09A
:1055700000064E4FDFF83891B046504615D5CAF1B7
:10558000000413E0119801244AA3012801D16FEA15
:105590000B010298119AC0E90031C0E9024206B03D
:1055A000BDE8F09FCBF10000DFE704460021404A50
:1055B000491842EB0450CDE9001012E0E00707D093
:1055C00032463B4640464946FAF796FF80468946B2
:1055D00032463B4610461946FAF78EFF06460F46FE
:1055E0006410002CEAD1DDE90401DDE90023BAF101
:1055F000000F06DAFAF780FF42464B46FAF77CFFC7
:1056000005E0FAF7EBFF42464B46FAF7E7FF0446A0
:105610000E460022284BFBF7B9F803D84FF0FF30B5
:10562000014607E00022254B20463146FAF7BDFE31
:10563000FBF72FFE102409E0002C0ADB0A220023CE
:10564000FBF7EEF8039B30321A55641E50EA010254
:10565000F2D1641C039AC4F111031444119A012A73
:1056600003D0012208430DD10AE0084304D00020F2
:105670004FF0110B119072E7A3EB0B056D1E0DE0BF
:105680005B4504DD4FF0000205F1010504E003DA9B
:105690004FF00002A5F10105002AECD00298119903
:1056A000C0E90231C0E9004579E70000000014407C
:1056B0000000F03F300000000000F0430000E03F39
:1056C00030380A2801D201207047002070470000BE
:1056D0002DE9FF4F95B09B468946064600250FE20F
:1056E000252877D100242746F84A0121059400E0B7
:1056F000044316F8013F203B01FA03F01042F7D1B2
:1057000030782A2811D06FF02F033078A0F13002C2
:10571000092A16D8059A44F0020402EB820203EB30
:1057200042021044761C0590EFE759F8042B0592CD
:10573000002A03DA504244F40054059044F0020475
:10574000761C30782E2816D116F8010F44F0040488
:105750002A280DD06FF02F023078A0F13003092BEA
:1057600009D807EB870302EB4303C718761CF3E75E
:1057700059F8047B761C30786C280FD006DC4C2856
:1057800017D068280DD06A2814D104E0742810D0EE
:105790007A280FD10DE044F400140AE044F4801498
:1057A00001E044F440147278824202D104F580147E
:1057B000761C761C307866280BD013DC582877D0FE
:1057C00009DC002875D04528F6D04628F4D04728B3
:1057D0001AD19DE118E0632835D0642879D0652876
:1057E00012D195E1702873D008DC6728F1D06928C0
:1057F0006FD06E280DD06F2806D1B5E073282CD05D
:10580000752875D0782874D05A46179990476D1C22
:1058100075E1C4F30250022809D003280DD0D9F84D
:10582000001004280DD00D6009F1040967E1D9F8D2
:105830000010EA17C1E90052F6E7D9F800100D8010
:10584000F2E70D70F0E719F8041B8DF80010002046
:105850008DF80100EA46012003E059F804AB4FF04F
:10586000FF3061074FF0000102D40DE008F10101A3
:105870008846B9420FDA8045F8DB1AF8081000298B
:10588000F4D108E008F1010188468142FADB1AF8F8
:1058900008100029F6D105985B46A0EB08072146C1
:1058A0003846179A00F094FA284400EB080507E000
:1058B0004DE029E10DE01AF8010B5A46179990477F
:1058C000B8F10108F7D25B4621463846179A13E132
:1058D00042E00A220092C4F302524FF0000A022A68
:1058E00008D059F804CB032A4FEAEC710AD00DE036
:1058F00029E02AE009F1070121F00702F2E802C1DC
:10590000914609E00FFA8CFC4FEAEC71042A03D1AE
:105910004FFA8CFC4FEAEC71002907DA0A460021A5
:10592000DCF1000C61EB02012D2202E0220504D51E
:105930002B228DF80420012203E0E20701D020226F
:10594000F7E7904659E00A2102E010220DE010210D
:105950004FF0000A00910BE010224FF0000A44F0D3
:1059600004040827009203E008224FF0000A009286
:10597000C4F30252022A05D059F804CB0021032AAD
:1059800008D009E009F1070121F00702F2E802C19D
:10599000914605E01FFA8CFC042A01D10CF0FF0CA3
:1059A0004FF00008220728D5702806D0009B83F00E
:1059B000100353EA0A0305D00EE040228DF80420BC
:1059C000012208E05CEA010206D030228DF80420B2
:1059D0008DF8050002229046009B83F0080353EAED
:1059E0000A030AD15CEA010201D1620705D530221F
:1059F0008DF804204FF001087F1E582804D034A0F1
:105A000003900EA802900DE036A0F9E753466046D9
:105A1000009AFAF705FF84460398825C0298401EBC
:105A2000029002705CEA0100F0D1029806A9081AFF
:105A300000F1200A600702D524F4803400E0012739
:105A4000574502DDA7EB0A0000E0002000EB0A0149
:105A5000009005984144401A0590E00306D45B4647
:105A60002146179A059800F0B3F90544002706E08F
:105A700001A85A46C05D179990476D1C7F1C474589
:105A8000F6DBE0030CD55B462146179A059800F03B
:105A90009FF9054404E030205A46179990476D1C41
:105AA0000099481E00900029F5DC08E00298029950
:105AB0005A460078491C0291179990476D1CBAF11B
:105AC0000001AAF1010AF1DC65E1000009280100EA
:105AD0003031323334353637383961626364656664
